{
  "address": "0x6947Ac0197Dc66983eDd20A181CC930D8c4Eb487",
  "abi": [
    {
      "inputs": [
        {
          "internalType": "address[]",
          "name": "_owners",
          "type": "address[]"
        },
        {
          "internalType": "uint256",
          "name": "_threshold",
          "type": "uint256"
        }
      ],
      "stateMutability": "nonpayable",
      "type": "constructor"
    },
    {
      "anonymous": false,
      "inputs": [
        {
          "indexed": false,
          "internalType": "bytes32",
          "name": "txHash",
          "type": "bytes32"
        }
      ],
      "name": "ExecutionFailure",
      "type": "event"
    },
    {
      "anonymous": false,
      "inputs": [
        {
          "indexed": false,
          "internalType": "bytes32",
          "name": "txHash",
          "type": "bytes32"
        }
      ],
      "name": "ExecutionSuccess",
      "type": "event"
    },
    {
      "inputs": [
        {
          "internalType": "bytes32",
          "name": "dataHash",
          "type": "bytes32"
        },
        {
          "internalType": "bytes",
          "name": "signatures",
          "type": "bytes"
        }
      ],
      "name": "checkSignatures",
      "outputs": [],
      "stateMutability": "view",
      "type": "function"
    },
    {
      "inputs": [
        {
          "internalType": "address",
          "name": "to",
          "type": "address"
        },
        {
          "internalType": "uint256",
          "name": "value",
          "type": "uint256"
        },
        {
          "internalType": "bytes",
          "name": "data",
          "type": "bytes"
        },
        {
          "internalType": "uint256",
          "name": "_nonce",
          "type": "uint256"
        },
        {
          "internalType": "uint256",
          "name": "chainid",
          "type": "uint256"
        }
      ],
      "name": "encodeTransactionData",
      "outputs": [
        {
          "internalType": "bytes32",
          "name": "",
          "type": "bytes32"
        }
      ],
      "stateMutability": "pure",
      "type": "function"
    },
    {
      "inputs": [
        {
          "internalType": "address",
          "name": "to",
          "type": "address"
        },
        {
          "internalType": "uint256",
          "name": "value",
          "type": "uint256"
        },
        {
          "internalType": "bytes",
          "name": "data",
          "type": "bytes"
        },
        {
          "internalType": "bytes",
          "name": "signatures",
          "type": "bytes"
        }
      ],
      "name": "execTransaction",
      "outputs": [
        {
          "internalType": "bool",
          "name": "success",
          "type": "bool"
        }
      ],
      "stateMutability": "payable",
      "type": "function"
    },
    {
      "inputs": [
        {
          "internalType": "address",
          "name": "",
          "type": "address"
        }
      ],
      "name": "isOwner",
      "outputs": [
        {
          "internalType": "bool",
          "name": "",
          "type": "bool"
        }
      ],
      "stateMutability": "view",
      "type": "function"
    },
    {
      "inputs": [],
      "name": "nonce",
      "outputs": [
        {
          "internalType": "uint256",
          "name": "",
          "type": "uint256"
        }
      ],
      "stateMutability": "view",
      "type": "function"
    },
    {
      "inputs": [],
      "name": "ownerCount",
      "outputs": [
        {
          "internalType": "uint256",
          "name": "",
          "type": "uint256"
        }
      ],
      "stateMutability": "view",
      "type": "function"
    },
    {
      "inputs": [
        {
          "internalType": "uint256",
          "name": "",
          "type": "uint256"
        }
      ],
      "name": "owners",
      "outputs": [
        {
          "internalType": "address",
          "name": "",
          "type": "address"
        }
      ],
      "stateMutability": "view",
      "type": "function"
    },
    {
      "inputs": [],
      "name": "threshold",
      "outputs": [
        {
          "internalType": "uint256",
          "name": "",
          "type": "uint256"
        }
      ],
      "stateMutability": "view",
      "type": "function"
    },
    {
      "stateMutability": "payable",
      "type": "receive"
    }
  ],
  "transactionHash": "0x25151f0adb8d713755898a1c629510a8bb711f629a1abae046f9260e1dde5795",
  "args": [
    [
      "0x5B38Da6a701c568545dCfcB03FcB875f56beddC4",
      "0xAb8483F64d9C6d1EcF9b849Ae677dD3315835cb2",
      "0x4B20993Bc481177ec7E8f571ceCaE8A9e22C02db"
    ],
    2
  ],
  "numDeployments": 1,
  "solcInputHash": "1e59f999b92b81d1d3f6f56737793a89",
  "bytecode": "0x60806040523480156200001157600080fd5b5060405162000bdb38038062000bdb833981016040819052620000349162000279565b62000040828262000048565b505062000391565b600354156200008a5760405162461bcd60e51b815260206004820152600960248201526804d5745433a353030360bc1b60448201526064015b60405180910390fd5b8151811115620000c95760405162461bcd60e51b81526020600482015260096024820152684d5745433a3530303160b81b604482015260640162000081565b6001811015620001085760405162461bcd60e51b815260206004820152600960248201526826aba2a19d1a98181960b91b604482015260640162000081565b60005b82518110156200023b5760008382815181106200012c576200012c62000353565b6020026020010151905060006001600160a01b0316816001600160a01b0316141580156200016357506001600160a01b0381163014155b80156200018957506001600160a01b03811660009081526001602052604090205460ff16155b620001c35760405162461bcd60e51b81526020600482015260096024820152684d5745433a3530303360b81b604482015260640162000081565b60008054600181810183557f290decd9548b62a8d60345a988386fc84ba6bc95484008f6362f93160ef3e56390910180546001600160a01b039094166001600160a01b031990941684179055918152602082905260409020805460ff1916909117905580620002328162000369565b9150506200010b565b509051600255600355565b634e487b7160e01b600052604160045260246000fd5b80516001600160a01b03811681146200027457600080fd5b919050565b600080604083850312156200028d57600080fd5b82516001600160401b0380821115620002a557600080fd5b818501915085601f830112620002ba57600080fd5b8151602082821115620002d157620002d162000246565b8160051b604051601f19603f83011681018181108682111715620002f957620002f962000246565b6040529283528183019350848101820192898411156200031857600080fd5b948201945b83861015620003415762000331866200025c565b855294820194938201936200031d565b97909101519698969750505050505050565b634e487b7160e01b600052603260045260246000fd5b6000600182016200038a57634e487b7160e01b600052601160045260246000fd5b5060010190565b61083a80620003a16000396000f3fe60806040526004361061007f5760003560e01c8063a67dd5091161004e578063a67dd50914610142578063affed0e014610162578063d01aa31814610178578063ed516d511461018b57600080fd5b8063025e7c271461008b5780630db02622146100c85780632f54bf6e146100ec57806342cde4e81461012c57600080fd5b3661008657005b600080fd5b34801561009757600080fd5b506100ab6100a6366004610561565b6101ad565b6040516001600160a01b0390911681526020015b60405180910390f35b3480156100d457600080fd5b506100de60025481565b6040519081526020016100bf565b3480156100f857600080fd5b5061011c610107366004610596565b60016020526000908152604090205460ff1681565b60405190151581526020016100bf565b34801561013857600080fd5b506100de60035481565b34801561014e57600080fd5b506100de61015d36600461065b565b6101d7565b34801561016e57600080fd5b506100de60045481565b61011c6101863660046106c4565b61022a565b34801561019757600080fd5b506101ab6101a6366004610742565b610377565b005b600081815481106101bd57600080fd5b6000918252602090912001546001600160a01b0316905081565b8251602093840120604080516001600160a01b039790971687860152868101959095526060860152608085019190915260a0808501919091528251808503909101815260c0909301909152815191012090565b60008061023c868686600454466101d7565b60048054919250600061024e8361079f565b919050555061025d8184610377565b856001600160a01b0316858560405161027691906107b8565b60006040518083038185875af1925050503d80600081146102b3576040519150601f19603f3d011682016040523d82523d6000602084013e6102b8565b606091505b505080925050816102fc5760405162461bcd60e51b81526020600482015260096024820152681355d150ce8d4c0c0d60ba1b60448201526064015b60405180910390fd5b811561033a576040518181527fdc29884a71d2bb98d3c53dc09718be05c7bfd142b7773a5c5cf2517629290ac09060200160405180910390a161036e565b6040518181527fdbe42d02a4e07d7eeff2874efe172540c93b297d206f6d691c9782a257323e329060200160405180910390a15b50949350505050565b600354806103b35760405162461bcd60e51b81526020600482015260096024820152684d5745433a3530303560b81b60448201526064016102f3565b6103be8160416107e7565b825110156103fa5760405162461bcd60e51b815260206004820152600960248201526826aba2a19d1a98181b60b91b60448201526064016102f3565b6000808060008060005b8681101561055657602060418083028a01918201516040830151929091015160ff16916040517f19457468657265756d205369676e6564204d6573736167653a0a3332000000006020820152603c81018d90529296509094509250600190605c0160408051601f198184030181528282528051602091820120600084529083018083525260ff871690820152606081018590526080810184905260a0016020604051602081039080840390855afa1580156104c3573d6000803e3d6000fd5b505050602060405103519450856001600160a01b0316856001600160a01b031611801561050857506001600160a01b03851660009081526001602052604090205460ff165b6105405760405162461bcd60e51b81526020600482015260096024820152684d5745433a3530303760b81b60448201526064016102f3565b849550808061054e9061079f565b915050610404565b505050505050505050565b60006020828403121561057357600080fd5b5035919050565b80356001600160a01b038116811461059157600080fd5b919050565b6000602082840312156105a857600080fd5b6105b18261057a565b9392505050565b634e487b7160e01b600052604160045260246000fd5b600082601f8301126105df57600080fd5b813567ffffffffffffffff808211156105fa576105fa6105b8565b604051601f8301601f19908116603f01168101908282118183101715610622576106226105b8565b8160405283815286602085880101111561063b57600080fd5b836020870160208301376000602085830101528094505050505092915050565b600080600080600060a0868803121561067357600080fd5b61067c8661057a565b945060208601359350604086013567ffffffffffffffff81111561069f57600080fd5b6106ab888289016105ce565b9598949750949560608101359550608001359392505050565b600080600080608085870312156106da57600080fd5b6106e38561057a565b935060208501359250604085013567ffffffffffffffff8082111561070757600080fd5b610713888389016105ce565b9350606087013591508082111561072957600080fd5b50610736878288016105ce565b91505092959194509250565b6000806040838503121561075557600080fd5b82359150602083013567ffffffffffffffff81111561077357600080fd5b61077f858286016105ce565b9150509250929050565b634e487b7160e01b600052601160045260246000fd5b6000600182016107b1576107b1610789565b5060010190565b6000825160005b818110156107d957602081860181015185830152016107bf565b506000920191825250919050565b80820281158282048414176107fe576107fe610789565b9291505056fea26469706673582212200c1015c5d8e2d7a9563449b173e02f8fc66f2f9bb36b0ba4abebba1f08f3933564736f6c63430008110033",
  "devdoc": {
    "kind": "dev",
    "methods": {},
    "version": 1
  },
  "userdoc": {
    "kind": "user",
    "methods": {},
    "version": 1
  },
  "storageLayout": {
    "storage": [
      {
        "astId": 12,
        "contract": "contracts/MultisigWallet.sol:MultisigWallet",
        "label": "owners",
        "offset": 0,
        "slot": "0",
        "type": "t_array(t_address)dyn_storage"
      },
      {
        "astId": 16,
        "contract": "contracts/MultisigWallet.sol:MultisigWallet",
        "label": "isOwner",
        "offset": 0,
        "slot": "1",
        "type": "t_mapping(t_address,t_bool)"
      },
      {
        "astId": 18,
        "contract": "contracts/MultisigWallet.sol:MultisigWallet",
        "label": "ownerCount",
        "offset": 0,
        "slot": "2",
        "type": "t_uint256"
      },
      {
        "astId": 20,
        "contract": "contracts/MultisigWallet.sol:MultisigWallet",
        "label": "threshold",
        "offset": 0,
        "slot": "3",
        "type": "t_uint256"
      },
      {
        "astId": 22,
        "contract": "contracts/MultisigWallet.sol:MultisigWallet",
        "label": "nonce",
        "offset": 0,
        "slot": "4",
        "type": "t_uint256"
      }
    ],
    "types": {
      "t_address": {
        "encoding": "inplace",
        "label": "address",
        "numberOfBytes": "20"
      },
      "t_array(t_address)dyn_storage": {
        "base": "t_address",
        "encoding": "dynamic_array",
        "label": "address[]",
        "numberOfBytes": "32"
      },
      "t_bool": {
        "encoding": "inplace",
        "label": "bool",
        "numberOfBytes": "1"
      },
      "t_mapping(t_address,t_bool)": {
        "encoding": "mapping",
        "key": "t_address",
        "label": "mapping(address => bool)",
        "numberOfBytes": "32",
        "value": "t_bool"
      },
      "t_uint256": {
        "encoding": "inplace",
        "label": "uint256",
        "numberOfBytes": "32"
      }
    }
  }
}